:0411E90000A8C0009A
:030BFE00011F0FC5
:0511E400AF1F0211D84D
:1010B9001211C9BF0128E51F2479601824C46010E2
:1010C90024E2600824F17010751FE122751FC32204
:0E10D900751F8722751F0F22E51F25E0F51FEA
:0110E70022E6
:101113001211571211747BFF7A1179E47F02120EB8
:10112300497BFF7A1079B97F05120E491211DE123D
:04113300107B80FBB2
:100A6D00E4F580900079E0FFB40800505F900A81B2
:100A7D00F8282873020A99020A9F020AA5020AABF6
:100A8D00020AB1020ABB020AC5020ACFC2A3C2A260
:100A9D008016C2A3C2A2801AC2A3C2A2801EC2A384
:100AAD00C2A28022C2A3D2A2C2A1C2A08020C2A390
:100ABD00D2A2C2A1D2A08016C2A3D2A2D2A1C2A09C
:100ACD00800CC2A3D2A2D2A1D2A08002D2A3C3EF26
:100ADD00648094885029900079E0FF3395E0FE748E
:100AED00702FF58274003EF583E0FF3395E0FE74C0
:100AFD00002FF58274003EF583E493F580801E90FF
:100B0D000079E0FFB408133395E0FE74702FF58281
:100B1D0074003EF583E0F5808003E4F58090006F6E
:100B2D00E0FF900079E004FEF0D3EF6480F8EE640E
:100B3D0080984014E0D36480948850047408F022A7
:090B4D0090006EE0900079F022A6
:10117400E4F5937594FF5395F043960F90002A7409
:0B118400FFF0A3740AF0A3746DF022CA
:0911AE0090006EEFF0A3EDF022B9
:10113700900070EFF0A3EDF0A3EBF0A3E525F0A38B
:10114700E526F0A3E527F0A3E528F0A3E529F0229B
:0611D800900078EFF02208
:100C0100012A0041007D0041007A0541007B8341BA
:030C1100007C83E1
:100FB20020920690007BE014F090007AE014F0702A
:100FC200347405F0A3E0FFC39480500EA3E0948034
:100FD2004018A37401F0F52A801090007CE0C394BD
:100FE200805007A37402F0752A0190007CEFF09004
:050FF200007B7483F098
:010FF70022D7
:0211A000152B0D
:0911A200A82BA62AE4F52AE6FFB9
:0311AB00052B22EF
:1011570090003674FFF0A37411F0A374A0F0900010
:0D1167003374FFF0A3740FF0A374B2F022F4
:0711C90090007DE0FFE4F05F
:0111D00022FC
:100C14004100000A4100290A41006D0A040E000047
:100C240000000114004600670000FFFF8FFFC10DA4
:100C3400C105C108C101C10E60240005FF11F3FF05
:100C440011F3FF11F3FF11F3FF11F3FF11F3FF1180
:100C5400F3FF11F3FF11F3FF11F3FF11F3FF11F38E
:100C64006036002AFF11F3FF11F3FF11EDFF11F3BA
:100C7400FF11EDFF11F3FF11EDFF11F3FF11F3FF6E
:100C840011F3FF11EDFF11EDFF11EDFF11EDFF1158
:0A0C9400F3FF11F3FF11F3FF11F35A
:0111F30022D9
:0311ED007F00225E
:100F6B00438E805389F07BE07A28790178009011C9
:100F7B00E9120890120FF8EFF404F58A7BE07A2857
:100F8B00790178009011E9120890120FF8C3E49FD1
:100F9B00FFE49EFE74019DFDE49CFC780812087C26
:070FAB008F8CD28CD2A92229
:03000B00020F19C8
:040F1900C0E0C0D0A4
:100F1D00D5080A75084C300D020514D20DA20372C6
:100F2D00045036150AE50A7030850C0AD207300ACE
:100F3D0017E50D6007150D438F01801D538FFEC200
:100F4D00B5D51615C20A8011050BE50BD3940640D5
:090F5D0008C203E5136002D2068C
:050F6600D0D0D0E03204
:100EC600300E47C20E9011E9120890781012087C75
:100ED6008E1D8F1E900003E0FEA3E0FFE4FCFD7B69
:100EE60019FAF9F812082DC006C007AE1DAF1EABE1
:100EF60007AA06E4F9F8D007D006120FF87803120D
:100F0600087C900065EEF0A3EFF0900065E0FEA38C
:020F1600E0FFFA
:010F180022B6
:0911B700900067E0FEA3E0FF22B6
:0911C000900067EEF0A3EFF022AD
:10118F0090006BEEF0A3EFF0900069ECF0A3EDF0A0
:01119F00222D
:0311F000C2B42264
:03003B00020B565F
:100B5600C0E0C083C082C0D075D000C004C005C04C
:030B660006C007BF
:100B690030DF04C2DF807D30DA04C2DA807630D922
:100B79003DC2D9AFFBEFFEADEB7C00E42DFFEC3EAF
:100B890020000E900001F0A3EFF075DB11D2008078
:100B990053FE900001E0FCA3E0FDC3EF9DFFEE9C36
:100BA900A3F0A3EFF075DB00C200D20E803630D877
:100BB90033C2D8900067E07002A3E06022B2B4901B
:100BC9000069E0FEA3E0F5EAEEF5FAA3E0FEA3E092
:100BD900FF90006AE02FF0900069E03EF08005C2C6
:040BE900B453DAFE29
:100BED00D007D006D005D004D0D0D082D083D0E0AD
:010BFD0032C5
:0611DE00120F6BD2AF22DC
:100DBE003004047F0180027F00200A047E0180023D
:100DCE007E00EE5F6074E515C395095068300236FB
:100DDE00750D01E515131313541FAB17AA18A91996
:100DEE00F582758300120800FFE515540704FEEF27
:100DFE00A806088002C333D8FC30D70575160380C9
:100E0E002F751601802AAB17AA18A91975F002E5DD
:100E1E0015A4F58285F083120800F50DE51575F021
:100E2E0002A429F9EA35F0FA900001120800F5162D
:0A0E3E000515D20A22C204438F10EA
:010E48002287
:10098000900000E014F0701F740AF0D20590002966
:10099000E014F07012740AF0D20890006DE014F0C8
:1009A0007005740AF0D20190002AA3E0FAA3E0F9DE
:1009B0001208AC90002DA3E0FAA3E0F91208AC9065
:1009C0000039A3E0FAA3E0F91208AC900045A3E0D7
:1009D000FAA3E0F91208AC900054A3E0FAA3E0F9FE
:1009E0001208AC90005DA3E0FAA3E0F91208AC9005
:1009F000004BA3E0FAA3E0F91208ACEF600C900002
:100A00001DA3E0FAA3E0F91208AC90004EA3E0FAAF
:100A1000A3E0F91208ACEF600E900020A3E0FAA367
:100A2000E0F91208ACD20BE512D394004016D512AF
:100A30003030090C900023A3E0FAA3E0F91208ACCF
:100A4000D20C801D900051A3E0FAA3E0F91208AC8B
:100A5000EF600E900023A3E0FAA3E0F91208ACD2F5
:0D0A60000C900005A3E0FAA3E0F90208AC39
:100C9F0090003FA3E0FAA3E0F91208AC900042A342
:100CAF00E0FAA3E0F91208AC900033A3E0FAA3E056
:100CBF00F91208AC900008A3E0FAA3E0F91208AC0F
:100CCF00900030A3E0FAA3E0F91208ACEF600C90AB
:100CDF000011A3E0FAA3E0F91208AC900036A3E0EC
:100CEF00FAA3E0F91208ACEF600C900017A3E0FA3A
:100CFF00A3E0F91208AC900048A3E0FAA3E0F912C0
:100D0F0008ACEF600C90001AA3E0FAA3E0F9120808
:100D1F00AC30060EC206900026A3E0FAA3E0F9124B
:030D2F0008AC22EB
:10103C0090000BA3E0FAA3E0F91208AC90003CA3DB
:10104C00E0FAA3E0F91208ACEF600C900014A3E0F6
:10105C00FAA3E0F91208AC900057A3E0FAA3E0F968
:0F106C001208AC90005AA3E0FAA3E0F90208AC16
:1010E800AF11AE10AD0FAC0E9000601208A09000CA
:1010F80064E514F0E4F511F510F50FF50EF514900C
:0B110800000EA3E0FAA3E0F90208AC1F
:10107B00300705C207120DBE300D05C20D120980D7
:10108B00300505C205120C9F300805C20812103C32
:10109B00300105C2011210E8E5112401F511E43508
:0E10AB0010F510E4350FF50FE4350EF50E22AA
:100E49008B1A8A1B891CEFB40C005070900E5CF849
:100E5900282873020E80020E85020E8A020E8F0266
:100E69000E94020E99020E9E020EA3020EA8020E05
:100E7900AD020EB2020EB7900005803590000880D1
:100E89003090000B802B90000E802690001180215D
:100E9900900017801C900014801790001A801290FF
:100EA900001D800D90002080089000238003900091
:0D0EB90026E51AF0A3E51BF0A3E51CF022CE
:0711D1007B017A0079602226
:03000000020D32BC
:0C0D3200787FE4F6D8FD75812B020D7966
:10080000BB010CE58229F582E5833AF583E02250AD
:1008100006E92582F8E622BBFE06E92582F8E222F7
:0D082000E58229F582E5833AF583E4932211
:10082D00E88FF0A4CC8BF0A42CFCE98EF0A42CFC6A
:10083D008AF0EDA42CFCEA8EF0A4CDA8F08BF0A4E8
:10084D002DCC3825F0FDE98FF0A42CCD35F0FCEB47
:10085D008EF0A4FEA9F0EB8FF0A4CFC5F02ECD390C
:0F086D00FEE43CFCEAA42DCE35F0FDE43CFC2279
:100FF800C2D5E830E70FB2D5E4C39BFBE49AFAE424
:1010080099F9E498F8EC30E717B2D512102E1208C7
:10101800EEE4C39BFBE49AFAE499F9E498F88003B8
:101028001208EE30D50DE4C39FFFE49EFEE49DFD5B
:04103800E49CFC2216
:10087C00E86010ECA2E713FCED13FDEE13FEEF1392
:04088C00FFD8F0227F
:10089000E493FC740193FD740293FE740393FF22AE
:0C08A000ECF0A3EDF0A3EEF0A3EFF022CB
:0608AC008A838982E473D7
:100D3E00021113E493A3F8E493A34003F68001F2A7
:100D4E0008DFF48029E493A3F85407240CC8C333B6
:100D5E00C4540F4420C8834004F456800146F6DF85
:100D6E00E4800B0102040810204080900BFEE47E0C
:100D7E00019360BCA3FF543F30E509541FFEE4937A
:100D8E00A360010ECF54C025E060A840B8E493A341
:100D9E00FAE493A3F8E493A3C8C582C8CAC583CA6C
:100DAE00F0A3C8C582C8CAC583CADFE9DEE780BE24
:010C9E000055
:1008B20075F008758200EF2FFFEE33FECD33CDCCFD
:1008C20033CCC58233C5829BED9AEC99E582984080
:1008D2000CF582EE9BFEED9AFDEC99FC0FD5F0D65D
:1008E200E4CEFBE4CDFAE4CCF9A88222B800C1B987
:1008F2000059BA002DEC8BF084CFCECDFCE5F0CBC5
:10090200F97818EF2FFFEE33FEED33FDEC33FCEBFD
:1009120033FB10D703994004EB99FB0FD8E5E4F9B8
:10092200FA227818EF2FFFEE33FEED33FDEC33FCA5
:10093200C933C910D7059BE99A4007EC9BFCE99A99
:10094200F90FD8E0E4C9FAE4CCFB2275F010EF2FDE
:10095200FFEE33FEED33FDCC33CCC833C810D707DE
:100962009BEC9AE899400AED9BFDEC9AFCE899F819
:0E0972000FD5F0DAE4CDFBE4CCFAE4C8F922AC
:00000001FF
