:1013860000A8C0003F065B4F666D7D077F6F0008B3
:0E13960040014148BF86DBCFE6EDFD87FFEF4B
:090D0E00011A10011B08011C0070
:10108A00E4FF1211DABF010CE51C70047E01800234
:10109A007E008E1C7F041211DABF011CE51C700D44
:1010AA00E51A25E0F51A7010751A01800BE51B2563
:1010BA00E0F51B7003751B017F011211DABF011CD9
:1010CA00E51C700DE51AC313F51A7010751A8080A5
:1010DA000BE51BC313F51B7003751B80E51A451B33
:0410EA00FF021424C9
:10133D007F9B1212E11213A4E51A451BFF12142410
:10134D00E4FDFF1213F57BFF7A10798A7F011210ED
:09135D000D12142A1212A380FBE8
:0913EC008B88898C88898F88891F
:100D170052007A868600868600868600868600864A
:090D2700860086860041006F0978
:03002B0002141E9E
:06141E0053BCEFD20F32B7
:02080000152EB3
:10080200200F030209A9C20F90006EE0B409004054
:100812000302098B90081DF8282873020864020855
:100822003802084A02087602083802084A02088D8D
:1008320002083802084AAFBDEFFEADBE7C00E42DCF
:10084200FFEC3E900070803CAFBDEFFEADBE7C0081
:10085200E42DFFEC3E900072F0A3EFF0752A010246
:100862000991AFBDEFFEADBE7C00E42DFFEC3E90E2
:1008720000748010AFBDEFFEADBE7C00E42DFFEC36
:100882003E900076F0A3EFF0020991AFBDEFFEAD0E
:10089200BE7C00E42DFFEC3E900078F0A3EFF090D8
:1008A2000078E0FEA3E07807CEC313CE13D8F9A8F0
:1008B2002EF6C394065013A82EE675F003A4247AEC
:1008C200F582E43400F583E014F090006FE014F058
:1008D20060030209917409F0A82EE4F6A82EE6FF3F
:1008E200C394064003020991EF75F003A4247AF53C
:1008F20082E43400F583E0C39480502AE6FF75F069
:1009020003A4247BF582E43400F583E0D394804091
:1009120040EF75F003A4247CF582E43400F583747F
:1009220001F0F52B802BA82EE6FF75F003A4247BA3
:10093200F582E43400F583E0C394805014EF75F03F
:1009420003A4247CF582E43400F5837402F0752B51
:1009520001A82EE6FF75F003A4247AF582E43400A0
:10096200F583E0FEEF75F003A4247BF582E4340006
:10097200F583EEF0E675F003A4247AF582E4340000
:10098200F5837486F0060208DE90006E74FFF09024
:10099200006EE0D39407400374FFF090006EE00411
:0709A200F09013EC93F5BC8B
:0309A900052E22F6
:0213D000152ED8
:0913D200A82EA62BE4F52BE6FF82
:0313DB00052E22BA
:0213DE00152ECA
:0913E000A82EA62AE4F52AE6FF76
:0313E900052E22AC
:1012E1008F9D75BC88439720D2AD90004574FFF067
:1012F100A37408F0A37400F0A374FFF0A37413F0B7
:10130100A374D0F0A374FFF0A37413F0A374DEF000
:0113110022B9
:071410007B017A00797022D4
:1011DA00C3EF64809480403BD3EF6480948550339E
:1011EA00EFFD3395E0FC90007C75F003ED120A5890
:1011FA00EC75F003A42583F583E0FE90007C75F07E
:10120A0003ED120A58EC75F003A42583F583E4F084
:05121A00AF06227F0376
:01121F0022AC
:100C2500E4F580900097E0FFB40800505F900C3920
:100C3500F8282873020C51020C57020C5D020C6354
:100C4500020C69020C73020C7D020C87C2A3C2A2BE
:100C55008016C2A3C2A2801AC2A3C2A2801EC2A3CA
:100C6500C2A28022C2A3D2A2C2A1C2A08020C2A3D6
:100C7500D2A2C2A1D2A08016C2A3D2A2D2A1C2A0E2
:100C8500800CC2A3D2A2D2A1D2A08002D2A3C3EF6C
:100C9500648094885029900097E0FF3395E0FE74B6
:100CA5008E2FF58274003EF583E0FF3395E0FE74E8
:100CB5008A2FF58274133EF583E493F580801E90A8
:100CC5000097E0FFB408133395E0FE748E2FF5828C
:100CD50074003EF583E0F5808003E4F58090008D97
:100CE500E0FF900097E004FEF0D3EF6480F8EE6437
:100CF50080984014E0D36480948850047408F022EE
:090D050090008CE0900097F022B0
:1013A400E4F5937594FF5395F043960F90002A74D7
:0B13B400FFF0A3740CF0A37425F022DE
:0913F50090008CEFF0A3EDF02252
:1013660090008EEFF0A3EDF0A3EBF0A3E525F0A33C
:10137600E526F0A3E527F0A3E528F0A3E529F0226A
:06142400900096EFF0229B
:100D30004100000A4100290A41006D0A040E00002A
:100D400000000114004600670000FFFF8FFFC10D87
:100D5000C105C108C101C10E60240005FF1436FFA2
:100D60001436FF1436FF1436FF1436FF1436FF1402
:100D700036FF1436FF1436FF1436FF1436FF1436D0
:100D80006036002AFF1436FF1436FF1430FF143685
:100D9000FF1430FF1436FF1430FF1436FF1436FFF3
:100DA0001436FF1430FF1430FF1430FF1430FF14DA
:0A0DB00036FF1436FF1436FF143628
:011436002293
:031430007F002218
:10119300438E805389F07BE07A287901780090139D
:1011A30086120A3C121220EFF404F58A7BE07A28B7
:1011B30079017800901386120A3C121220C3E49F2F
:1011C300FFE49EFE74019DFDE49CFC7808120A284E
:0711D3008F8CD28CD2A922FF
:03000B000211419E
:04114100C0E0C0D07A
:10114500D5080A75084C300D020514D20DA203729C
:10115500045036150AE50A7030850C0AD207300AA4
:1011650017E50D6007150D438F01801D538FFEC2D6
:10117500B5D51615C20A8011050BE50BD3940640AB
:0911850008C203E5136002D20662
:05118E00D0D0D0E032DA
:1010EE00300E47C20E901386120A3C7810120A2850
:1010FE008E2C8F2D900003E0FEA3E0FFE4FCFD7B21
:10110E0019FAF9F81209D9C006C007AE2CAF2DABEB
:10111E0007AA06E4F9F8D007D006121220780312B7
:10112E000A28900065EEF0A3EFF0900065E0FEA3B4
:02113E00E0FFD0
:01114000228C
:0913FE00900067E0FEA3E0FF226D
:09140700900067EEF0A3EFF02263
:1013BF0090006BEEF0A3EFF0900069ECF0A3EDF06E
:0113CF0022FB
:03143300C2B4221E
:03003B00020DBBF8
:100DBB00C0E0C083C082C0D075D000C004C005C0E5
:030DCB0006C00758
:100DCE0030DF04C2DF807D30DA04C2DA807630D9BB
:100DDE003DC2D9AFFBEFFEADEB7C00E42DFFEC3E48
:100DEE0020000E900001F0A3EFF075DB11D2008011
:100DFE0053FE900001E0FCA3E0FDC3EF9DFFEE9CCF
:100E0E00A3F0A3EFF075DB00C200D20E803630D80F
:100E1E0033C2D8900067E07002A3E06022B2B490B3
:100E2E000069E0FEA3E0F5EAEEF5FAA3E0FEA3E02A
:100E3E00FF90006AE02FF0900069E03EF08005C25E
:040E4E00B453DAFEC1
:100E5200D007D006D005D004D0D0D082D083D0E045
:010E6200325D
:06142A00121193D2AF2263
:100F82003004047F0180027F00200A047E01800277
:100F92007E00EE5F6074E515C39509506830023635
:100FA200750D01E515131313541FAB17AA18A919D0
:100FB200F5827583001209ACFFE515540704FEEFB4
:100FC200A806088002C333D8FC30D7057516038003
:100FD2002F751601802AAB17AA18A91975F002E518
:100FE20015A4F58285F0831209ACF50DE51575F0AF
:100FF20002A429F9EA35F0FA9000011209ACF516BB
:0A1002000515D20A22C204438F1024
:01100C0022C1
:100B3800900000E014F0701F740AF0D205900029AC
:100B4800E014F07012740AF0D20890006DE014F00E
:100B58007005740AF0D20190002AA3E0FAA3E0F924
:100B6800120A6490002DA3E0FAA3E0F9120A649037
:100B78000039A3E0FAA3E0F9120A64900045A3E063
:100B8800FAA3E0F9120A64900054A3E0FAA3E0F98A
:100B9800120A6490005DA3E0FAA3E0F9120A6490D7
:100BA800004BA3E0FAA3E0F9120A64EF600C90008E
:100BB8001DA3E0FAA3E0F9120A6490004EA3E0FA3C
:100BC800A3E0F9120A64EF600E900020A3E0FAA3F4
:100BD800E0F9120A64D20BE512D394004016D5123C
:100BE8003030090C900023A3E0FAA3E0F9120A645C
:100BF800D20C801D900051A3E0FAA3E0F9120A6418
:100C0800EF600E900023A3E0FAA3E0F9120A64D281
:0D0C18000C900005A3E0FAA3E0F9020A64C5
:100E630090003FA3E0FAA3E0F9120A64900042A3C2
:100E7300E0FAA3E0F9120A64900033A3E0FAA3E0D6
:100E8300F9120A64900008A3E0FAA3E0F9120A64D5
:100E9300900030A3E0FAA3E0F9120A64EF600C902B
:100EA3000011A3E0FAA3E0F9120A64900036A3E06C
:100EB300FAA3E0F9120A64EF600C900017A3E0FABA
:100EC300A3E0F9120A64900048A3E0FAA3E0F91240
:100ED3000A64EF600C90001AA3E0FAA3E0F9120A87
:100EE3006430060EC206900026A3E0FAA3E0F912CE
:030EF3000A64226C
:1012640090000BA3E0FAA3E0F9120A6490003CA3F7
:10127400E0FAA3E0F9120A64EF600C900014A3E012
:10128400FAA3E0F9120A64900057A3E0FAA3E0F984
:0F129400120A6490005AA3E0FAA3E0F9020A6478
:10131200AF11AE10AD0FAC0E900060120A4C9000EF
:1013220064E514F0E4F511F510F50FF50EF51490DF
:0B133200000EA3E0FAA3E0F9020A6439
:1012A300300705C207120F82300D05C20D120B382D
:1012B300300505C205120E63300805C20812126418
:1012C300300105C201121312E5112401F511E435B1
:0E12D30010F510E4350FF50FE4350EF50E2280
:10100D008B1D8A1E891FEFB40C005070901020F8B4
:10101D0028287302104402104902104E0210530288
:10102D00105802105D02106202106702106C02105F
:10103D007102107602107B900005803590000880BB
:10104D003090000B802B90000E8026900011802197
:10105D00900017801C900014801790001A80129039
:10106D00001D800D900020800890002380039000CB
:0D107D0026E51DF0A3E51EF0A3E51FF022FF
:071417007B017A00796022DD
:03000000020EF6F7
:0C0EF600787FE4F6D8FD75812E020F3DD8
:1009AC00BB010CE58229F582E5833AF583E0225000
:1009BC0006E92582F8E622BBFE06E92582F8E2224A
:0D09CC00E58229F582E5833AF583E4932264
:1009D900E88FF0A4CC8BF0A42CFCE98EF0A42CFCBD
:1009E9008AF0EDA42CFCEA8EF0A4CDA8F08BF0A43B
:1009F9002DCC3825F0FDE98FF0A42CCD35F0FCEB9A
:100A09008EF0A4FEA9F0EB8FF0A4CFC5F02ECD395E
:0F0A1900FEE43CFCEAA42DCE35F0FDE43CFC22CB
:10122000C2D5E830E70FB2D5E4C39BFBE49AFAE4F9
:1012300099F9E498F8EC30E717B2D5121256120A71
:10124000A6E4C39BFBE49AFAE499F9E498F88003D6
:10125000120AA630D50DE4C39FFFE49EFEE49DFD77
:04126000E49CFC22EC
:100A2800E86010ECA2E713FCED13FDEE13FEEF13E4
:040A3800FFD8F022D1
:100A3C00E493FC740193FD740293FE740393FF2200
:0C0A4C00ECF0A3EDF0A3EEF0A3EFF0221D
:0C0A5800A42582F582E5F03583F58322A9
:060A64008A838982E4731D
:100F020002133DE493A3F8E493A34003F68001F2B5
:100F120008DFF48029E493A3F85407240CC8C333F0
:100F2200C4540F4420C8834004F456800146F6DFBF
:100F3200E4800B0102040810204080900D0EE47E34
:100F4200019360BCA3FF543F30E509541FFEE493B4
:100F5200A360010ECF54C025E060A840B8E493A37B
:100F6200FAE493A3F8E493A3C8C582C8CAC583CAA6
:100F7200F0A3C8C582C8CAC583CADFE9DEE780BE5E
:010DBA000038
:100A6A0075F008758200EF2FFFEE33FECD33CDCC43
:100A7A0033CCC58233C5829BED9AEC99E5829840C6
:100A8A000CF582EE9BFEED9AFDEC99FC0FD5F0D6A3
:100A9A00E4CEFBE4CDFAE4CCF9A88222B800C1B9CD
:100AAA000059BA002DEC8BF084CFCECDFCE5F0CB0B
:100ABA00F97818EF2FFFEE33FEED33FDEC33FCEB44
:100ACA0033FB10D703994004EB99FB0FD8E5E4F9FF
:100ADA00FA227818EF2FFFEE33FEED33FDEC33FCEC
:100AEA00C933C910D7059BE99A4007EC9BFCE99AE0
:100AFA00F90FD8E0E4C9FAE4CCFB2275F010EF2F25
:100B0A00FFEE33FEED33FDCC33CCC833C810D70724
:100B1A009BEC9AE899400AED9BFDEC9AFCE899F85F
:0E0B2A000FD5F0DAE4CDFBE4CCFAE4C8F922F2
:00000001FF
