:1011920000A8C0003F065B4F666D7D077F6F0008A9
:0E11A20040014148BF86DBCFE6EDFD87FFEF41
:1011E80012120FBF010F121239EF70097D64FC7FD4
:0611F80064FE120EB72296
:10112F001211521211B01211CD7D077F011212450B
:10113F007BFF7A1179E87F06120E3A12126D1210A8
:03114F009E80FB84
:04110700152B152B64
:10110B0012124EA82BA60608A607A82BE6FE08E689
:0F111B00FF4E600BEF24FFFFEE34FFFE12125762
:05112A00052B052B223E
:1011520053B1EF43B210121276E4F5D975DA49D2DF
:10116200DE90003F74FFF0A37411F0A37407F02225
:080EB7008E1A8F1B8C1C8D1D8F
:100EBF0012124EEF4E7066AF1DAE1C121257C3E5E5
:100ECF001B940AE51A9400404BE47B18FAF9F8904A
:100EDF00119212095E1208B8C006C007AE1AAF1BF6
:100EEF00AB07AA06E4F9F8D007D0061208B8AB078B
:100EFF00AA06AFF9EFFEADE97C00E42DFFEC3ECF83
:100F0F002BCF3AAD07FCAF03AE021211FED2D8437E
:0F0F1F00DA01800612127653DAFE7F02227F0378
:010F2E0022A0
:0C12390012124EEF4E7002FF227F0122C5
:100A6D00E4F580900079E0FFB40800505F900A81B2
:100A7D00F8282873020A99020A9F020AA5020AABF6
:100A8D00020AB1020ABB020AC5020ACFC2A3C2A260
:100A9D008016C2A3C2A2801AC2A3C2A2801EC2A384
:100AAD00C2A28022C2A3D2A2C2A1C2A08020C2A390
:100ABD00D2A2C2A1D2A08016C2A3D2A2D2A1C2A09C
:100ACD00800CC2A3D2A2D2A1D2A08002D2A3C3EF26
:100ADD00648094885029900079E0FF3395E0FE748E
:100AED00702FF58274003EF583E0FF3395E0FE74C0
:100AFD00962FF58274113EF583E493F580801E9058
:100B0D000079E0FFB408133395E0FE74702FF58281
:100B1D0074003EF583E0F5808003E4F58090006F6E
:100B2D00E0FF900079E004FEF0D3EF6480F8EE640E
:100B3D0080984014E0D36480948850047408F022A7
:090B4D0090006EE0900079F022A6
:1011CD00E4F5937594FF5395F043960F90002A74B0
:0B11DD00FFF0A3740AF0A3746DF02271
:0912450090006EEFF0A3EDF02221
:10117200900070EFF0A3EDF0A3EBF0A3E525F0A350
:10118200E526F0A3E527F0A3E528F0A3E529F02260
:06126700900078EFF02278
:100C91004100000A4100290A41006D0A040E0000CA
:100CA10000000114004600670000FFFF8FFFC10D27
:100CB100C105C108C101C10E60240005FF1279FF01
:100CC1001279FF1279FF1279FF1279FF1279FF125F
:100CD10079FF1279FF1279FF1279FF1279FF1279E8
:100CE1006036002AFF1279FF1279FF1273FF127921
:100CF100FF1273FF1279FF1273FF1279FF1279FF4E
:100D01001279FF1273FF1273FF1273FF1273FF1236
:0A0D110079FF1279FF1279FF1279C1
:011279002252
:031273007F0022D7
:100FD400438E805389F07BE07A2879017800901160
:100FE4009212095E12101BEFF404F58A7BE07A2852
:100FF4007901780090119212095E12101BC3E49FCC
:10100400FFE49EFE74019DFDE49CFC780812094AED
:071014008F8CD28CD2A922BF
:03000B00020F825F
:040F8200C0E0C0D03B
:100F8600D5080A75084C300D020514D20DA203725D
:100F9600045036150AE50A7030850C0AD207300A65
:100FA60017E50D6007150D438F01801D538FFEC297
:100FB600B5D51615C20A8011050BE50BD39406406C
:090FC60008C203E5136002D20623
:050FCF00D0D0D0E0329B
:100F2F00300E47C20E90119212095E781012094AC4
:100F3F008E1E8F1F900003E0FEA3E0FFE4FCFD7BFD
:100F4F0019FAF9F812082DC006C007AE1EAF1FAB75
:100F5F0007AA06E4F9F8D007D00612101B7803127F
:100F6F00094A900065EEF0A3EFF0900065E0FEA354
:020F7F00E0FF91
:010F8100224D
:09124E00900067E0FEA3E0FF221E
:09125700900067EEF0A3EFF02215
:1011FE0090006BEEF0A3EFF0900069ECF0A3EDF031
:01120E0022BD
:03127600C2B422DD
:03003B00020B565F
:100B5600C0E0C083C082C0D075D000C004C005C04C
:030B660006C007BF
:100B690030DF04C2DF807D30DA04C2DA807630D922
:100B79003DC2D9AFFBEFFEADEB7C00E42DFFEC3EAF
:100B890020000E900001F0A3EFF075DB11D2008078
:100B990053FE900001E0FCA3E0FDC3EF9DFFEE9C36
:100BA900A3F0A3EFF075DB00C200D20E803630D877
:100BB90033C2D8900067E07002A3E06022B2B4901B
:100BC9000069E0FEA3E0F5EAEEF5FAA3E0FEA3E092
:100BD900FF90006AE02FF0900069E03EF08005C2C6
:040BE900B453DAFE29
:100BED00D007D006D005D004D0D0D082D083D0E0AD
:010BFD0032C5
:06126D00120FD4D2AF22E3
:100DAF003004047F0180027F00200A047E0180024C
:100DBF007E00EE5F6074E515C3950950683002360A
:100DCF00750D01E515131313541FAB17AA18A919A5
:100DDF00F582758300120800FFE515540704FEEF36
:100DEF00A806088002C333D8FC30D70575160380D8
:100DFF002F751601802AAB17AA18A91975F002E5ED
:100E0F0015A4F58285F083120800F50DE51575F030
:100E1F0002A429F9EA35F0FA900001120800F5163C
:0A0E2F000515D20A22C204438F10F9
:010E39002296
:10098000900000E014F0701F740AF0D20590002966
:10099000E014F07012740AF0D20890006DE014F0C8
:1009A0007005740AF0D20190002AA3E0FAA3E0F9DE
:1009B00012097A90002DA3E0FAA3E0F912097A90C7
:1009C0000039A3E0FAA3E0F912097A900045A3E008
:1009D000FAA3E0F912097A900054A3E0FAA3E0F92F
:1009E00012097A90005DA3E0FAA3E0F912097A9067
:1009F000004BA3E0FAA3E0F912097AEF600C900033
:100A00001DA3E0FAA3E0F912097A90004EA3E0FAE0
:100A1000A3E0F912097AEF600E900020A3E0FAA398
:100A2000E0F912097AD20BE512D394004016D512E0
:100A30003030090C900023A3E0FAA3E0F912097A00
:100A4000D20C801D900051A3E0FAA3E0F912097ABC
:100A5000EF600E900023A3E0FAA3E0F912097AD226
:0D0A60000C900005A3E0FAA3E0F902097A6A
:100BFE0090003FA3E0FAA3E0F912097A900042A315
:100C0E00E0FAA3E0F912097A900033A3E0FAA3E028
:100C1E00F912097A900008A3E0FAA3E0F912097A12
:100C2E00900030A3E0FAA3E0F912097AEF600C907D
:100C3E000011A3E0FAA3E0F912097A900036A3E0BE
:100C4E00FAA3E0F912097AEF600C900017A3E0FA0C
:100C5E00A3E0F912097A900048A3E0FAA3E0F91292
:100C6E00097AEF600C90001AA3E0FAA3E0F91209DA
:100C7E007A30060EC206900026A3E0FAA3E0F9121F
:030C8E00097A22BE
:10105F0090000BA3E0FAA3E0F912097A90003CA3E9
:10106F00E0FAA3E0F912097AEF600C900014A3E004
:10107F00FAA3E0F912097A900057A3E0FAA3E0F976
:0F108F0012097A90005AA3E0FAA3E0F902097A55
:1010DC00AF11AE10AD0FAC0E90006012096E900007
:1010EC0064E514F0E4F511F510F50FF50EF5149018
:0B10FC00000EA3E0FAA3E0F902097A5D
:10109E00300705C207120DAF300D05C20D120980C3
:1010AE00300505C205120BFE300805C20812105F8E
:1010BE00300105C2011210DCE5112401F511E435F1
:0E10CE0010F510E4350FF50FE4350EF50E2287
:100E3A008B1A8A1B891CEFB40C005070900E4DF867
:100E4A00282873020E71020E76020E7B020E8002B1
:100E5A000E85020E8A020E8F020E94020E99020E5F
:100E6A009E020EA3020EA89000058035900008800D
:100E7A003090000B802B90000E802690001180216C
:100E8A00900017801C900014801790001A8012900E
:100E9A00001D800D900020800890002380039000A0
:0D0EAA0026E51AF0A3E51BF0A3E51CF022DD
:071260007B017A0079602296
:070D1B00012A0041007A00EB
:0D122C0020A409752A0190007A7401F022B7
:02121E00152B8E
:09122000A82BA62AE4F52AE6FF3A
:03122900052B2270
:1011B00090003C74FFF0A37412F0A3741EF0900032
:0D11C0003974FFF0A37412F0A3742CF02218
:02120F00152B9D
:0A12110090007AE0A82BF6FFE4F04D
:03121B00052B227E
:03000000020D23CB
:0C0D2300787FE4F6D8FD75812B020D6A84
:10080000BB010CE58229F582E5833AF583E02250AD
:1008100006E92582F8E622BBFE06E92582F8E222F7
:0D082000E58229F582E5833AF583E4932211
:10082D00E88FF0A4CC8BF0A42CFCE98EF0A42CFC6A
:10083D008AF0EDA42CFCEA8EF0A4CDA8F08BF0A4E8
:10084D002DCC3825F0FDE98FF0A42CCD35F0FCEB47
:10085D008EF0A4FEA9F0EB8FF0A4CFC5F02ECD390C
:0F086D00FEE43CFCEAA42DCE35F0FDE43CFC2279
:10087C0075F008758200EF2FFFEE33FECD33CDCC33
:10088C0033CCC58233C5829BED9AEC99E5829840B6
:10089C000CF582EE9BFEED9AFDEC99FC0FD5F0D693
:1008AC00E4CEFBE4CDFAE4CCF9A88222B800C1B9BD
:1008BC000059BA002DEC8BF084CFCECDFCE5F0CBFB
:1008CC00F97818EF2FFFEE33FEED33FDEC33FCEB34
:1008DC0033FB10D703994004EB99FB0FD8E5E4F9EF
:1008EC00FA227818EF2FFFEE33FEED33FDEC33FCDC
:1008FC00C933C910D7059BE99A4007EC9BFCE99AD0
:10090C00F90FD8E0E4C9FAE4CCFB2275F010EF2F14
:10091C00FFEE33FEED33FDCC33CCC833C810D70714
:10092C009BEC9AE899400AED9BFDEC9AFCE899F84F
:0E093C000FD5F0DAE4CDFBE4CCFAE4C8F922E2
:10101B00C2D5E830E70FB2D5E4C39BFBE49AFAE400
:10102B0099F9E498F8EC30E717B2D5121051120881
:10103B00B8E4C39BFBE49AFAE499F9E498F88003CB
:10104B001208B830D50DE4C39FFFE49EFEE49DFD6E
:04105B00E49CFC22F3
:10094A00E86010ECA2E713FCED13FDEE13FEEF13C3
:04095A00FFD8F022B0
:10095E00E493FC740193FD740293FE740393FF22DF
:0C096E00ECF0A3EDF0A3EEF0A3EFF022FC
:06097A008A838982E47308
:100D2F0002112FE493A3F8E493A34003F68001F29A
:100D3F0008DFF48029E493A3F85407240CC8C333C5
:100D4F00C4540F4420C8834004F456800146F6DF94
:100D5F00E4800B0102040810204080900C91E47E87
:100D6F00019360BCA3FF543F30E509541FFEE49389
:100D7F00A360010ECF54C025E060A840B8E493A350
:100D8F00FAE493A3F8E493A3C8C582C8CAC583CA7B
:100D9F00F0A3C8C582C8CAC583CADFE9DEE780BE33
:010D220000D0
:00000001FF
