:03000000020EED00
:0C0EED00787FE4F6D8FD758132020F34E6
:1013AC0000A8C0003F065B4F666D7D077F6F00088D
:0E13BC0040014148BF86DBCFE6EDFD87FFEF25
:040DB8000222000013
:10130F001213E71213CA7D07E4FF12143BE4FF1216
:10131F00145D12138D7BFF7A1079817F01121004F7
:10132F007BFF7A1479027F041210041214631212D5
:03133F009680FB9A
:10138D00E4F528F529F526F527F524F525F52EF5AF
:0F139D002F75300CF531F5327B0CFDFF02136D0F
:1012D4000529E5297002052864644528700CF52861
:1012E400F5290527E52770020526E527643C4526F0
:1012F400700CF526F5270525E52570020524E5255E
:0B130400646445247004F524F52522E4
:10140200E4FF121217BF0111E52345227006F522EF
:0914120075230122E4F522F52303
:01141B0022AE
:10108100E5234522605F1212D4AE24AF257C007D9A
:101091000A12082DAB07AE26AF277C007D0A120885
:1010A1002DAA07AE28AF297C007D0A12082D8F31A9
:1010B1008A2EAE24AF257C007D0A12082DC005AE14
:1010C10026AF277C007D0A12082D8D2F75300CAEBE
:1010D10028AF297C007D0A12082D8D32AF03D0057F
:0610E1007B0C12136D22CE
:100C2700E4F580900079E0FFB40800505F900C3B3A
:100C3700F8282873020C53020C59020C5F020C654A
:100C4700020C6B020C75020C7F020C89C2A3C2A2B4
:100C57008016C2A3C2A2801AC2A3C2A2801EC2A3C8
:100C6700C2A28022C2A3D2A2C2A1C2A08020C2A3D4
:100C7700D2A2C2A1D2A08016C2A3D2A2D2A1C2A0E0
:100C8700800CC2A3D2A2D2A1D2A08002D2A3C3EF6A
:100C9700648094885029900079E0FF3395E0FE74D2
:100CA700702FF58274003EF583E0FF3395E0FE7404
:100CB700B02FF58274133EF583E493F580801E9080
:100CC7000079E0FFB408133395E0FE74702FF582C6
:100CD70074003EF583E0F5808003E4F58090006FB3
:100CE700E0FF900079E004FEF0D3EF6480F8EE6453
:100CF70080984014E0D36480948850047408F022EC
:090D070090006EE0900079F022EA
:1013E700E4F5937594FF5395F043960F90002A7494
:0B13F700FFF0A3740CF0A37427F02299
:09143B0090006EEFF0A3EDF02229
:10136D00900070EFF0A3EDF0A3EBF0A3E52EF0A34A
:10137D00E52FF0A3E530F0A3E531F0A3E532F0223F
:06145D00900078EFF02280
:100DBC00011C0049007B949400949400949400418D
:030DCC00007A1E8C
:020A1700151DAB
:100A190020B20690007BE014F020B30690007EE03F
:100A290014F0209706900081E014F090007AE01409
:100A3900F06003020B37741EF0A81DE4F6A81DE64A
:100A4900FFC3648094834003020B37EF3395E0FEC4
:100A590090007B75F003EF1208E2EE75F003A42510
:100A690083F583E0C39480503990007C75F003EFDF
:100A79001208E2EE75F003A42583F583E0D3948090
:100A8900405AE6FF3395E0FE90007D75F003EF12C2
:100A990008E2EE75F003A42583F5837401F0F51CD3
:100AA900803AA81DE6FF3395E0FE90007C75F003BF
:100AB900EF1208E2EE75F003A42583F583E0C394F1
:100AC90080501990007D75F003EF1208E2EE75F081
:100AD90003A42583F5837402F0751C01A81DE6FFA4
:100AE900FD3395E0FC90007B75F003ED1208E2EC14
:100AF90075F003A42583F583E0FE90007C75F0036F
:100B0900ED1208E2EC75F003A42583F583EEF0EF0E
:100B19003395E0FE90007B75F003EF1208E2EE7565
:0E0B2900F003A42583F5837494F006020A46B7
:030B3700051D2277
:02142D00151D8B
:09142F00A81DA61CE4F51CE6FF53
:03143800051D226D
:1013CA0090003074FFF0A37414F0A3742DF0900011
:0D13DA002D74FFF0A3740AF0A37417F02225
:10121700EF600764016003BF0233EFFD3395E0FC25
:1012270090007D75F003ED1208E2EC75F003A4253C
:1012370083F583E0FE90007D75F003ED1208E2EC84
:0F12470075F003A42583F583E4F0AF06227F033F
:011256002275
:100DCF004100000A4100290A41006D0A040E00008B
:100DDF0000000114004600670000FFFF8FFFC10DE8
:100DEF00C105C108C101C10E60240005FF146FFFCA
:100DFF00146FFF146FFF146FFF146FFF146FFF1446
:100E0F006FFF146FFF146FFF146FFF146FFF146FDA
:100E1F006036002AFF146FFF146FFF1469FF146F01
:100E2F00FF1469FF146FFF1469FF146FFF146FFF36
:100E3F00146FFF1469FF1469FF1469FF1469FF141D
:0A0E4F006FFF146FFF146FFF146FA4
:01146F00225A
:031469007F0022DF
:10118C00438E805389F07BE07A28790178009013A4
:10119C00AC1208C61211D3EFF404F58A7BE07A285E
:1011AC00790178009013AC1208C61211D3C3E49FD6
:1011BC00FFE49EFE74019DFDE49CFC78081208B2CD
:0711CC008F8CD28CD2A92206
:03000B0002113AA5
:04113A00C0E0C0D081
:10113E00D5080A75084C300D020514D20DA20372A3
:10114E00045036150AE50A7030850C0AD207300AAB
:10115E0017E50D6007150D438F01801D538FFEC2DD
:10116E00B5D51615C20A8011050BE50BD3940640B2
:09117E0008C203E5136002D20669
:05118700D0D0D0E032E1
:1010E700300E47C20E9013AC1208C678101208B221
:1010F7008E1A8F1B900003E0FEA3E0FFE4FCFD7B4C
:1011070019FAF9F8120863C006C007AE1AAF1BAB8D
:1011170007AA06E4F9F8D007D0061211D37803120C
:1011270008B2900065EEF0A3EFF0900065E0FEA333
:02113700E0FFD7
:011139002293
:09144400900067E0FEA3E0FF2226
:09144D00900067EEF0A3EFF0221D
:10141C0090006BEEF0A3EFF0900069ECF0A3EDF010
:01142C00229D
:03146C00C2B422E5
:03003B00020D10A3
:100D1000C0E0C083C082C0D075D000C004C005C090
:030D200006C00703
:100D230030DF04C2DF807D30DA04C2DA807630D966
:100D33003DC2D9AFFBEFFEADEB7C00E42DFFEC3EF3
:100D430020000E900001F0A3EFF075DB11D20080BC
:100D530053FE900001E0FCA3E0FDC3EF9DFFEE9C7A
:100D6300A3F0A3EFF075DB00C200D20E803630D8BB
:100D730033C2D8900067E07002A3E06022B2B4905F
:100D83000069E0FEA3E0F5EAEEF5FAA3E0FEA3E0D6
:100D9300FF90006AE02FF0900069E03EF08005C20A
:040DA300B453DAFE6D
:100DA700D007D006D005D004D0D0D082D083D0E0F1
:010DB7003209
:0614630012118CD2AF2231
:100F79003004047F0180027F00200A047E01800280
:100F89007E00EE5F6074E515C3950950683002363E
:100F9900750D01E515131313541FAB17AA18A919D9
:100FA900F582758300120800FFE515540704FEEF6A
:100FB900A806088002C333D8FC30D705751603800C
:100FC9002F751601802AAB17AA18A91975F002E521
:100FD90015A4F58285F083120800F50DE51575F065
:100FE90002A429F9EA35F0FA900001120800F51671
:0A0FF9000515D20A22C204438F102E
:0110030022CA
:100B3A00900000E014F0701F740AF0D205900029AA
:100B4A00E014F07012740AF0D20890006DE014F00C
:100B5A007005740AF0D20190002AA3E0FAA3E0F922
:100B6A001208EE90002DA3E0FAA3E0F91208EE9025
:100B7A000039A3E0FAA3E0F91208EE900045A3E0D9
:100B8A00FAA3E0F91208EE900054A3E0FAA3E0F900
:100B9A001208EE90005DA3E0FAA3E0F91208EE90C5
:100BAA00004BA3E0FAA3E0F91208EEEF600C900004
:100BBA001DA3E0FAA3E0F91208EE90004EA3E0FAB2
:100BCA00A3E0F91208EEEF600E900020A3E0FAA36A
:100BDA00E0F91208EED20BE512D394004016D512B2
:100BEA003030090C900023A3E0FAA3E0F91208EED2
:100BFA00D20C801D900051A3E0FAA3E0F91208EE8E
:100C0A00EF600E900023A3E0FAA3E0F91208EED2F7
:0D0C1A000C900005A3E0FAA3E0F90208EE3B
:100E5A0090003FA3E0FAA3E0F91208EE900042A343
:100E6A00E0FAA3E0F91208EE900033A3E0FAA3E057
:100E7A00F91208EE900008A3E0FAA3E0F91208EECE
:100E8A00900030A3E0FAA3E0F91208EEEF600C90AC
:100E9A000011A3E0FAA3E0F91208EE900036A3E0ED
:100EAA00FAA3E0F91208EEEF600C900017A3E0FA3B
:100EBA00A3E0F91208EE900048A3E0FAA3E0F912C1
:100ECA0008EEEF600C90001AA3E0FAA3E0F912080A
:100EDA00EE30060EC206900026A3E0FAA3E0F9124D
:030EEA0008EE22ED
:1012570090000BA3E0FAA3E0F91208EE90003CA37C
:10126700E0FAA3E0F91208EEEF600C900014A3E097
:10127700FAA3E0F91208EE900057A3E0FAA3E0F909
:0F1287001208EE90005AA3E0FAA3E0F90208EE75
:10134200AF11AE10AD0FAC0E9000601208D6900037
:1013520064E514F0E4F511F510F50FF50EF51490AF
:0B136200000EA3E0FAA3E0F90208EE81
:10129600300705C207120F79300D05C20D120B3A41
:1012A600300505C205120E5A300805C2081212573B
:1012B600300105C201121342E5112401F511E4358E
:0E12C60010F510E4350FF50FE4350EF50E228D
:101004008B2B8A2C892DEFB40C005070901017F89C
:1010140028287302103B02104002104502104A02B5
:10102400104F02105402105902105E021063021095
:101034006802106D021072900005803590000880DF
:101044003090000B802B90000E80269000118021A0
:10105400900017801C900014801790001A80129042
:10106400001D800D900020800890002380039000D4
:0D10740026E52BF0A3E52CF0A3E52DF022DE
:071456007B017A007960229E
:100EF90002130FE493A3F8E493A34003F68001F2ED
:100F090008DFF48029E493A3F85407240CC8C333F9
:100F1900C4540F4420C8834004F456800146F6DFC8
:100F2900E4800B0102040810204080900DB8E47E93
:100F3900019360BCA3FF543F30E509541FFEE493BD
:100F4900A360010ECF54C025E060A840B8E493A384
:100F5900FAE493A3F8E493A3C8C582C8CAC583CAAF
:100F6900F0A3C8C582C8CAC583CADFE9DEE780BE67
:010E59000098
:10080000BB010CE58229F582E5833AF583E02250AD
:1008100006E92582F8E622BBFE06E92582F8E222F7
:0D082000E58229F582E5833AF583E4932211
:10082D00C2D5EC30E709B2D5E4C39DFDE49CFCEEE6
:10083D0030E715B2D5E4C39FFFE49EFE1208F4C362
:10084D00E49DFDE49CFC80031208F430D507C3E45D
:06085D009FFFE49EFE2255
:10086300E88FF0A4CC8BF0A42CFCE98EF0A42CFC34
:100873008AF0EDA42CFCEA8EF0A4CDA8F08BF0A4B2
:100883002DCC3825F0FDE98FF0A42CCD35F0FCEB11
:100893008EF0A4FEA9F0EB8FF0A4CFC5F02ECD39D6
:0F08A300FEE43CFCEAA42DCE35F0FDE43CFC2243
:1011D300C2D5E830E70FB2D5E4C39BFBE49AFAE447
:1011E30099F9E498F8EC30E717B2D512120912090D
:1011F30085E4C39BFBE49AFAE499F9E498F8800345
:1012030012098530D50DE4C39FFFE49EFEE49DFDE6
:04121300E49CFC2239
:1008B200E86010ECA2E713FCED13FDEE13FEEF135C
:0408C200FFD8F02249
:1008C600E493FC740193FD740293FE740393FF2278
:0C08D600ECF0A3EDF0A3EEF0A3EFF02295
:0C08E200A42582F582E5F03583F5832221
:0608EE008A838982E47395
:1008F400BC000BBE0029EF8DF084FFADF022E4CCE8
:10090400F875F008EF2FFFEE33FEEC33FCEE9DECB0
:10091400984005FCEE9DFE0FD5F0E9E4CEFD22EDF6
:10092400F8F5F0EE8420D21CFEADF075F008EF2F40
:10093400FFED33FD4007985006D5F0F222C398FD31
:050944000FD5F0EA22CE
:1009490075F008758200EF2FFFEE33FECD33CDCC65
:1009590033CCC58233C5829BED9AEC99E5829840E8
:100969000CF582EE9BFEED9AFDEC99FC0FD5F0D6C5
:10097900E4CEFBE4CDFAE4CCF9A88222B800C1B9EF
:100989000059BA002DEC8BF084CFCECDFCE5F0CB2D
:10099900F97818EF2FFFEE33FEED33FDEC33FCEB66
:1009A90033FB10D703994004EB99FB0FD8E5E4F921
:1009B900FA227818EF2FFFEE33FEED33FDEC33FC0E
:1009C900C933C910D7059BE99A4007EC9BFCE99A02
:1009D900F90FD8E0E4C9FAE4CCFB2275F010EF2F47
:1009E900FFEE33FEED33FDCC33CCC833C810D70747
:1009F9009BEC9AE899400AED9BFDEC9AFCE899F882
:0E0A09000FD5F0DAE4CDFBE4CCFAE4C8F92214
:00000001FF
