:1014F30000A8C0003F065B4F666D7D077F6F000845
:1015030040012002100480BF86DBCFE6EDFD87FF9C
:10151300EF777C395E79713D760F0E753837545C01
:0B15230073673149783E1C7E646E59EE
:080E5900061A00000000000071
:10124C0012168278227C007D007E007F0A1208D064
:10125C00AE28AF297C007D641209238E1A8F1BAE39
:10126C0028AF297C007D0A1209237C007D0A120913
:10127C00238C1C8D1DAE28AF297C007D0A120923FE
:10128C008C1E8D1FC3E5299414E5289400500A7D0B
:10129C000A7C007FB07E048013D3E5299464E52892
:0F12AC009400400B7D0A7C007FD07E071211D486
:0112BB002210
:10160D0075250A75260A851B27851D28851F297BAB
:08161D000A7D0A7F0A0215D2C2
:1013EE007F9812152E1215F21215B2E4FF121696F0
:1013FE007D077F05121667E4F525F526F527F528F6
:10140E00FBFDFF1215D27BFF7A16790D7F021211AA
:10141E00577BFF7A12794C7F0312115712169C12CA
:04142E0014B580FB76
:09165E008B88898C88898F8889AA
:100E610052007A86860086860086860086860086FF
:090E7100860086860041006F092D
:03002B000216902A
:0616900053BCEFD20F3243
:020AD7001534D4
:100AD900200F03020C80C20F90006EE0B4090040A1
:100AE90003020C62900AF4F8282873020B3B020BEC
:100AF9000F020B21020B4D020B0F020B21020B649B
:100B0900020B0F020B21AFBDEFFEADBE7C00E42D41
:100B1900FFEC3E900070803CAFBDEFFEADBE7C00A7
:100B2900E42DFFEC3E900072F0A3EFF07530010266
:100B39000C68AFBDEFFEADBE7C00E42DFFEC3E902E
:100B490000748010AFBDEFFEADBE7C00E42DFFEC5C
:100B59003E900076F0A3EFF0020C68AFBDEFFEAD5A
:100B6900BE7C00E42DFFEC3E900078F0A3EFF090FE
:100B79000078E0FEA3E07807CEC313CE13D8F9A816
:100B890034F6C394065013A834E675F003A4247A06
:100B9900F582E43400F583E014F090006FE014F07E
:100BA9006003020C687409F0A834E4F6A834E6FF7F
:100BB900C394064003020C68EF75F003A4247AF588
:100BC90082E43400F583E0C39480502AE6FF75F08F
:100BD90003A4247BF582E43400F583E0D3948040B8
:100BE90040EF75F003A4247CF582E43400F58374A6
:100BF90001F0F531802BA834E6FF75F003A4247BBE
:100C0900F582E43400F583E0C394805014EF75F065
:100C190003A4247CF582E43400F5837402F0753171
:100C290001A834E6FF75F003A4247AF582E43400C0
:100C3900F583E0FEEF75F003A4247BF582E434002C
:100C4900F583EEF0E675F003A4247AF582E4340026
:100C5900F5837486F006020BB590006E74FFF09070
:100C6900006EE0D39407400374FFF090006EE00437
:070C7900F090165E93F5BC3C
:030C800005342216
:02163600153469
:09163800A834A631E4F531E6FF07
:031641000534224B
:0216440015345B
:09164600A834A630E4F530E6FFFB
:03164F000534223D
:10152E008F9D75BC88439720D2AD90004574FFF017
:10153E00A3740AF0A374D7F0A374FFF0A37416F08B
:10154E00A37436F0A374FFF0A37416F0A37444F0E2
:01155E00226A
:071682007B017A0079702260
:1013A800C3EF64809480403BD3EF648094855033CE
:1013B800EFFD3395E0FC90007C75F003ED120AC553
:1013C800EC75F003A42583F583E0FE90007C75F0AE
:1013D80003ED120AC5EC75F003A42583F583E4F048
:0513E800AF06227F03A7
:0113ED0022DD
:04158A0015341534CB
:10158E00121670A834A60608A607A834E6FE08E6CA
:0F159E00FF4E600BEF24FFFFEE34FFFE121679B5
:0515AD000534053422A5
:1015B20053B1EF43B2101216A5E4F5D975DA49D248
:1015C200DE90003F74FFF0A37415F0A3748AF0223A
:0811D4008E2C8F2D8C2E8D2F27
:1011DC00121670EF4E7066AF2FAE2E121679C3E555
:1011EC002D940AE52C9400404BE47B18FAF9F89006
:1011FC0014F3120AA9120A03C006C007AE2CAF2DB5
:10120C00AB07AA06E4F9F8D007D006120A03AB071D
:10121C00AA06AFF9EFFEADE97C00E42DFFEC3ECF62
:10122C002BCF3AAD07FCAF03AE02121625D2D84332
:0F123C00DA0180061216A553DAFE7F02227F0325
:01124B002280
:0C165200121670EF4E7002FF227F012282
:100D7000E4F580900097E0FFB40800505F900D8488
:100D8000F8282873020D9C020DA2020DA8020DAED8
:100D9000020DB4020DBE020DC8020DD2C2A3C2A242
:100DA0008016C2A3C2A2801AC2A3C2A2801EC2A37E
:100DB000C2A28022C2A3D2A2C2A1C2A08020C2A38A
:100DC000D2A2C2A1D2A08016C2A3D2A2D2A1C2A096
:100DD000800CC2A3D2A2D2A1D2A08002D2A3C3EF20
:100DE000648094885029900097E0FF3395E0FE746A
:100DF0008E2FF58274003EF583E0FF3395E0FE749C
:100E0000F72FF58274143EF583E493F580801E90ED
:100E10000097E0FFB408133395E0FE748E2FF5823F
:100E200074003EF583E0F5808003E4F58090008D4A
:100E3000E0FF900097E004FEF0D3EF6480F8EE64EA
:100E400080984014E0D36480948850047408F022A1
:090E500090008CE0900097F02264
:1015F200E4F5937594FF5395F043960F90002A7487
:0B160200FFF0A3740DF0A37470F02241
:0916670090008CEFF0A3EDF022DD
:1015D20090008EEFF0A3EDF0A3EBF0A3E525F0A3CE
:1015E200E526F0A3E527F0A3E528F0A3E529F022FC
:06169600900096EFF02227
:100E7A004100000A4100290A41006D0A040E0000DF
:100E8A0000000114004600670000FFFF8FFFC10D3C
:100E9A00C105C108C101C10E60240005FF16A8FFE3
:100EAA0016A8FF16A8FF16A8FF16A8FF16A8FF1671
:100EBA00A8FF16A8FF16A8FF16A8FF16A8FF16A8CF
:100ECA006036002AFF16A8FF16A8FF16A2FF16A86A
:100EDA00FF16A2FF16A8FF16A2FF16A8FF16A8FF64
:100EEA0016A8FF16A2FF16A2FF16A2FF16A2FF1649
:0A0EFA00A8FF16A8FF16A8FF16A80F
:0116A800221F
:0316A2007F0022A4
:10136100438E805389F07BE07A28790178009014CC
:10137100F3120AA9121432EFF404F58A7BE07A28F9
:10138100790178009014F3120AA9121432C3E49F70
:10139100FFE49EFE74019DFDE49CFC7808120A9511
:0713A1008F8CD28CD2A9222F
:03000B0002130FCE
:04130F00C0E0C0D0AA
:10131300D5080A75084C300D020514D20DA20372CC
:10132300045036150AE50A7030850C0AD207300AD4
:1013330017E50D6007150D438F01801D538FFEC206
:10134300B5D51615C20A8011050BE50BD3940640DB
:0913530008C203E5136002D20692
:05135C00D0D0D0E0320A
:1012BC00300E47C20E9014F3120AA97810120A9538
:1012CC008E328F33900003E0FEA3E0FFE4FCFD7B45
:1012DC0019FAF9F8120978C006C007AE32AF33AB71
:1012EC0007AA06E4F9F8D007D006121432780312D4
:1012FC000A95900065EEF0A3EFF0900065E0FEA378
:02130C00E0FF00
:01130E0022BC
:09167000900067E0FEA3E0FF22F8
:09167900900067EEF0A3EFF022EF
:1016250090006BEEF0A3EFF0900069ECF0A3EDF005
:011635002292
:0316A500C2B422AA
:03003B00020F05AC
:100F0500C0E0C083C082C0D075D000C004C005C099
:030F150006C0070C
:100F180030DF04C2DF807D30DA04C2DA807630D96F
:100F28003DC2D9AFFBEFFEADEB7C00E42DFFEC3EFC
:100F380020000E900001F0A3EFF075DB11D20080C5
:100F480053FE900001E0FCA3E0FDC3EF9DFFEE9C83
:100F5800A3F0A3EFF075DB00C200D20E803630D8C4
:100F680033C2D8900067E07002A3E06022B2B49068
:100F78000069E0FEA3E0F5EAEEF5FAA3E0FEA3E0DF
:100F8800FF90006AE02FF0900069E03EF08005C213
:040F9800B453DAFE76
:100F9C00D007D006D005D004D0D0D082D083D0E0FA
:010FAC003212
:06169C00121361D2AF221F
:1010CC003004047F0180027F00200A047E0180022C
:1010DC007E00EE5F6074E515C395095068300236EA
:1010EC00750D01E515131313541FAB17AA18A91985
:1010FC00F5827583001208F6FFE515540704FEEF20
:10110C00A806088002C333D8FC30D70575160380B7
:10111C002F751601802AAB17AA18A91975F002E5CC
:10112C0015A4F58285F0831208F6F50DE51575F01A
:10113C0002A429F9EA35F0FA9000011208F6F51626
:0A114C000515D20A22C204438F10D9
:011156002276
:100C8300900000E014F0701F740AF0D20590002960
:100C9300E014F07012740AF0D20890006DE014F0C2
:100CA3007005740AF0D20190002AA3E0FAA3E0F9D8
:100CB300120AD190002DA3E0FAA3E0F9120AD19011
:100CC3000039A3E0FAA3E0F9120AD1900045A3E0AA
:100CD300FAA3E0F9120AD1900054A3E0FAA3E0F9D1
:100CE300120AD190005DA3E0FAA3E0F9120AD190B1
:100CF300004BA3E0FAA3E0F9120AD1EF600C9000D5
:100D03001DA3E0FAA3E0F9120AD190004EA3E0FA82
:100D1300A3E0F9120AD1EF600E900020A3E0FAA33A
:100D2300E0F9120AD1D20BE512D394004016D51282
:100D33003030090C900023A3E0FAA3E0F9120AD1A2
:100D4300D20C801D900051A3E0FAA3E0F9120AD15E
:100D5300EF600E900023A3E0FAA3E0F9120AD1D2C8
:0D0D63000C900005A3E0FAA3E0F9020AD10C
:100FAD0090003FA3E0FAA3E0F9120AD1900042A30A
:100FBD00E0FAA3E0F9120AD1900033A3E0FAA3E01E
:100FCD00F9120AD1900008A3E0FAA3E0F9120AD1B0
:100FDD00900030A3E0FAA3E0F9120AD1EF600C9073
:100FED000011A3E0FAA3E0F9120AD1900036A3E0B4
:100FFD00FAA3E0F9120AD1EF600C900017A3E0FA02
:10100D00A3E0F9120AD1900048A3E0FAA3E0F91287
:10101D000AD1EF600C90001AA3E0FAA3E0F9120ACE
:10102D00D130060EC206900026A3E0FAA3E0F91215
:03103D000AD122B3
:1014760090000BA3E0FAA3E0F9120AD190003CA376
:10148600E0FAA3E0F9120AD1EF600C900014A3E091
:10149600FAA3E0F9120AD1900057A3E0FAA3E0F903
:0F14A600120AD190005AA3E0FAA3E0F9020AD18A
:10155F00AF11AE10AD0FAC0E900060120AB9900033
:10156F0064E514F0E4F511F510F50FF50EF5149090
:0B157F00000EA3E0FAA3E0F9020AD17D
:1014B500300705C2071210CC300D05C20D120C8382
:1014C500300505C205120FAD300805C208121476A5
:1014D500300105C20112155FE5112401F511E4354E
:0E14E50010F510E4350FF50FE4350EF50E226C
:101157008B228A238924EFB40C00507090116AF80F
:1011670028287302118E02119302119802119D0211
:1011770011A20211A70211AC0211B10211B602119C
:10118700BB0211C00211C590000580359000088090
:101197003090000B802B90000E802690001180214C
:1011A700900017801C900014801790001A801290EE
:1011B700001D800D90002080089000238003900080
:0D11C70026E522F0A3E523F0A3E524F022A5
:071689007B017A0079602269
:03000000021040AB
:0C104000787FE4F6D8FD7581340210873B
:10080000E709F608DFFA8046E709F208DFFA803EDA
:1008100088828C83E709F0A3DFFA8032E309F608C7
:10082000DFFA8078E309F208DFFA807088828C832F
:10083000E309F0A3DFFA806489828A83E0A3F608E3
:10084000DFFA805889828A83E0A3F208DFFA804CBD
:1008500080D280FA80C680D4806980F28033801094
:1008600080A680EA809A80A880DA80E280CA8033FD
:1008700089828A83ECFAE493A3C8C582C8CCC58375
:10088000CCF0A3C8C582C8CCC583CCDFE9DEE78045
:100890000D89828A83E493A3F608DFF9ECFAA9F0C4
:1008A000EDFB2289828A83ECFAE0A3C8C582C8CC1A
:1008B000C583CCF0A3C8C582C8CCC583CCDFEADE33
:1008C000E880DB89828A83E493A3F208DFF980CC95
:1008D00088F0EF60010E4E60C388F0ED2402B4048E
:1008E0000050B9F582EB2402B4040050AF23234535
:0608F00082239008507302
:1008F600BB010CE58229F582E5833AF583E02250B7
:1009060006E92582F8E622BBFE06E92582F8E22200
:0D091600E58229F582E5833AF583E493221A
:10092300BC000BBE0029EF8DF084FFADF022E4CCB8
:10093300F875F008EF2FFFEE33FEEC33FCEE9DEC81
:10094300984005FCEE9DFE0FD5F0E9E4CEFD22EDC7
:10095300F8F5F0EE8420D21CFEADF075F008EF2F11
:10096300FFED33FD4007985006D5F0F222C398FD02
:050973000FD5F0EA229F
:10097800E88FF0A4CC8BF0A42CFCE98EF0A42CFC1E
:100988008AF0EDA42CFCEA8EF0A4CDA8F08BF0A49C
:100998002DCC3825F0FDE98FF0A42CCD35F0FCEBFB
:1009A8008EF0A4FEA9F0EB8FF0A4CFC5F02ECD39C0
:0F09B800FEE43CFCEAA42DCE35F0FDE43CFC222D
:1009C70075F008758200EF2FFFEE33FECD33CDCCE7
:1009D70033CCC58233C5829BED9AEC99E58298406A
:1009E7000CF582EE9BFEED9AFDEC99FC0FD5F0D647
:1009F700E4CEFBE4CDFAE4CCF9A88222B800C1B971
:100A07000059BA002DEC8BF084CFCECDFCE5F0CBAE
:100A1700F97818EF2FFFEE33FEED33FDEC33FCEBE7
:100A270033FB10D703994004EB99FB0FD8E5E4F9A2
:100A3700FA227818EF2FFFEE33FEED33FDEC33FC8F
:100A4700C933C910D7059BE99A4007EC9BFCE99A83
:100A5700F90FD8E0E4C9FAE4CCFB2275F010EF2FC8
:100A6700FFEE33FEED33FDCC33CCC833C810D707C8
:100A77009BEC9AE899400AED9BFDEC9AFCE899F803
:0E0A87000FD5F0DAE4CDFBE4CCFAE4C8F92296
:10143200C2D5E830E70FB2D5E4C39BFBE49AFAE4E5
:1014420099F9E498F8EC30E717B2D5121468120A49
:1014520003E4C39BFBE49AFAE499F9E498F8800365
:10146200120A0330D50DE4C39FFFE49EFEE49DFD06
:04147200E49CFC22D8
:100A9500E86010ECA2E713FCED13FDEE13FEEF1377
:040AA500FFD8F02264
:100AA900E493FC740193FD740293FE740393FF2293
:0C0AB900ECF0A3EDF0A3EEF0A3EFF022B0
:0C0AC500A42582F582E5F03583F583223C
:060AD1008A838982E473B0
:10104C000213EEE493A3F8E493A34003F68001F2B9
:10105C0008DFF48029E493A3F85407240CC8C333A5
:10106C00C4540F4420C8834004F456800146F6DF74
:10107C00E4800B0102040810204080900E59E47E9D
:10108C00019360BCA3FF543F30E509541FFEE49369
:10109C00A360010ECF54C025E060A840B8E493A330
:1010AC00FAE493A3F8E493A3C8C582C8CAC583CA5B
:1010BC00F0A3C8C582C8CAC583CADFE9DEE780BE13
:010F040000EC
:00000001FF
